{
  "_format": "hh-sol-artifact-1",
  "contractName": "MEVsky",
  "sourceName": "contracts/MEVsky.sol",
  "abi": [
    {
      "inputs": [
        {
          "internalType": "uint256",
          "name": "",
          "type": "uint256"
        },
        {
          "internalType": "uint256",
          "name": "",
          "type": "uint256"
        }
      ],
      "name": "BountyTooSmall",
      "type": "error"
    },
    {
      "inputs": [
        {
          "internalType": "bool",
          "name": "",
          "type": "bool"
        }
      ],
      "name": "WrongState",
      "type": "error"
    },
    {
      "anonymous": false,
      "inputs": [
        {
          "indexed": false,
          "internalType": "uint256",
          "name": "minBounty",
          "type": "uint256"
        }
      ],
      "name": "MinBountySet",
      "type": "event"
    },
    {
      "anonymous": false,
      "inputs": [
        {
          "indexed": true,
          "internalType": "address",
          "name": "previousOwner",
          "type": "address"
        },
        {
          "indexed": true,
          "internalType": "address",
          "name": "newOwner",
          "type": "address"
        }
      ],
      "name": "OwnershipTransferred",
      "type": "event"
    },
    {
      "anonymous": false,
      "inputs": [
        {
          "indexed": false,
          "internalType": "address",
          "name": "sender",
          "type": "address"
        },
        {
          "indexed": false,
          "internalType": "address",
          "name": "receiver",
          "type": "address"
        }
      ],
      "name": "TurnedOff",
      "type": "event"
    },
    {
      "anonymous": false,
      "inputs": [
        {
          "indexed": false,
          "internalType": "address",
          "name": "sender",
          "type": "address"
        },
        {
          "indexed": false,
          "internalType": "uint256",
          "name": "bounty",
          "type": "uint256"
        }
      ],
      "name": "TurnedOn",
      "type": "event"
    },
    {
      "inputs": [],
      "name": "minBounty",
      "outputs": [
        {
          "internalType": "uint256",
          "name": "",
          "type": "uint256"
        }
      ],
      "stateMutability": "view",
      "type": "function"
    },
    {
      "inputs": [],
      "name": "on",
      "outputs": [
        {
          "internalType": "bool",
          "name": "",
          "type": "bool"
        }
      ],
      "stateMutability": "view",
      "type": "function"
    },
    {
      "inputs": [],
      "name": "owner",
      "outputs": [
        {
          "internalType": "address",
          "name": "",
          "type": "address"
        }
      ],
      "stateMutability": "view",
      "type": "function"
    },
    {
      "inputs": [],
      "name": "renounceOwnership",
      "outputs": [],
      "stateMutability": "nonpayable",
      "type": "function"
    },
    {
      "inputs": [
        {
          "internalType": "uint256",
          "name": "newMinBounty",
          "type": "uint256"
        }
      ],
      "name": "setMinBounty",
      "outputs": [],
      "stateMutability": "nonpayable",
      "type": "function"
    },
    {
      "inputs": [
        {
          "internalType": "address",
          "name": "newOwner",
          "type": "address"
        }
      ],
      "name": "transferOwnership",
      "outputs": [],
      "stateMutability": "nonpayable",
      "type": "function"
    },
    {
      "inputs": [
        {
          "internalType": "address payable",
          "name": "receiver",
          "type": "address"
        }
      ],
      "name": "turnOff",
      "outputs": [],
      "stateMutability": "nonpayable",
      "type": "function"
    },
    {
      "inputs": [],
      "name": "turnOn",
      "outputs": [],
      "stateMutability": "payable",
      "type": "function"
    }
  ],
  "bytecode": "0x608060405234801561001057600080fd5b5061001a3361001f565b61006f565b600080546001600160a01b038381166001600160a01b0319831681178455604051919092169283917f8be0079c531659141344cd1fd0a4f28419497f9722a3daafe3b4186f6b6457e09190a35050565b61063c8061007e6000396000f3fe60806040526004361061007b5760003560e01c80638da5cb5b1161004e5780638da5cb5b14610111578063b547a72614610139578063ba33ed7d14610159578063f2fde38b1461016157600080fd5b80633b58f49a1461008057806367b7c034146100a2578063715018a6146100d857806389b8db55146100ed575b600080fd5b34801561008c57600080fd5b506100a061009b3660046105a3565b610181565b005b3480156100ae57600080fd5b506000546100c390600160a01b900460ff1681565b60405190151581526020015b60405180910390f35b3480156100e457600080fd5b506100a06101ef565b3480156100f957600080fd5b5061010360015481565b6040519081526020016100cf565b34801561011d57600080fd5b506000546040516001600160a01b0390911681526020016100cf565b34801561014557600080fd5b506100a061015436600461057f565b610225565b6100a06102c4565b34801561016d57600080fd5b506100a061017c36600461057f565b61037d565b6000546001600160a01b031633146101b45760405162461bcd60e51b81526004016101ab906105bc565b60405180910390fd5b60018190556040518181527fa5324cc7956c4d8e6e433de4d6a5e735c98fa2f3af113a918f33a0f94e22a9679060200160405180910390a150565b6000546001600160a01b031633146102195760405162461bcd60e51b81526004016101ab906105bc565b6102236000610411565b565b600054600160a01b900460ff1661026057600054604051636aa3f46b60e01b8152600160a01b90910460ff16151560048201526024016101ab565b6000805460ff60a01b19169055604080513381526001600160a01b03831660208201527fd28965104f41e1c22f14e8ca0830937d0010b11925ed052c9db6a8c472f68410910160405180910390a16102c16001600160a01b03821647610461565b50565b600054600160a01b900460ff161561030057600054604051636aa3f46b60e01b8152600160a01b90910460ff16151560048201526024016101ab565b6001543410156103305760015460405163149712e160e31b815234600482015260248101919091526044016101ab565b6000805460ff60a01b1916600160a01b179055604080513381523460208201527f5b2e6c18c22664823d5331a9c424e9c0d88836da420e7d77e3cb42a7d245ab46910160405180910390a1565b6000546001600160a01b031633146103a75760405162461bcd60e51b81526004016101ab906105bc565b6001600160a01b03811661040c5760405162461bcd60e51b815260206004820152602660248201527f4f776e61626c653a206e6577206f776e657220697320746865207a65726f206160448201526564647265737360d01b60648201526084016101ab565b6102c1815b600080546001600160a01b038381166001600160a01b0319831681178455604051919092169283917f8be0079c531659141344cd1fd0a4f28419497f9722a3daafe3b4186f6b6457e09190a35050565b804710156104b15760405162461bcd60e51b815260206004820152601d60248201527f416464726573733a20696e73756666696369656e742062616c616e636500000060448201526064016101ab565b6000826001600160a01b03168260405160006040518083038185875af1925050503d80600081146104fe576040519150601f19603f3d011682016040523d82523d6000602084013e610503565b606091505b505090508061057a5760405162461bcd60e51b815260206004820152603a60248201527f416464726573733a20756e61626c6520746f2073656e642076616c75652c207260448201527f6563697069656e74206d6179206861766520726576657274656400000000000060648201526084016101ab565b505050565b60006020828403121561059157600080fd5b813561059c816105f1565b9392505050565b6000602082840312156105b557600080fd5b5035919050565b6020808252818101527f4f776e61626c653a2063616c6c6572206973206e6f7420746865206f776e6572604082015260600190565b6001600160a01b03811681146102c157600080fdfea26469706673582212209229c17799cdb4040603d511d96ea59114fad15423ef627d5fb56d7f28babb4c64736f6c63430008060033",
  "linkReferences": {},
  "deployedLinkReferences": {}
}